{
  "_format": "hh-sol-artifact-1",
  "contractName": "FLPCrowdSale",
  "sourceName": "contracts/FLPCrowdsale.sol",
  "abi": [
    {
      "inputs": [
        {
          "internalType": "uint256",
          "name": "bnb_rate",
          "type": "uint256"
        },
        {
          "internalType": "uint256",
          "name": "usdt_rate",
          "type": "uint256"
        },
        {
          "internalType": "address payable",
          "name": "wallet",
          "type": "address"
        },
        {
          "internalType": "contract IERC20",
          "name": "icotoken",
          "type": "address"
        },
        {
          "internalType": "contract IERC20",
          "name": "usdttoken",
          "type": "address"
        }
      ],
      "stateMutability": "nonpayable",
      "type": "constructor"
    },
    {
      "anonymous": false,
      "inputs": [
        {
          "indexed": false,
          "internalType": "address",
          "name": "buyer",
          "type": "address"
        },
        {
          "indexed": false,
          "internalType": "uint256",
          "name": "amount",
          "type": "uint256"
        }
      ],
      "name": "BuyTokenByBNB",
      "type": "event"
    },
    {
      "anonymous": false,
      "inputs": [
        {
          "indexed": false,
          "internalType": "address",
          "name": "buyer",
          "type": "address"
        },
        {
          "indexed": false,
          "internalType": "uint256",
          "name": "amount",
          "type": "uint256"
        }
      ],
      "name": "BuyTokenByUSDT",
      "type": "event"
    },
    {
      "anonymous": false,
      "inputs": [
        {
          "indexed": true,
          "internalType": "address",
          "name": "previousOwner",
          "type": "address"
        },
        {
          "indexed": true,
          "internalType": "address",
          "name": "newOwner",
          "type": "address"
        }
      ],
      "name": "OwnershipTransferred",
      "type": "event"
    },
    {
      "anonymous": false,
      "inputs": [
        {
          "indexed": false,
          "internalType": "uint256",
          "name": "newRate",
          "type": "uint256"
        }
      ],
      "name": "SetBNBRate",
      "type": "event"
    },
    {
      "anonymous": false,
      "inputs": [
        {
          "indexed": false,
          "internalType": "uint256",
          "name": "newRate",
          "type": "uint256"
        }
      ],
      "name": "SetUSDTRate",
      "type": "event"
    },
    {
      "inputs": [],
      "name": "BNB_rate",
      "outputs": [
        {
          "internalType": "uint256",
          "name": "",
          "type": "uint256"
        }
      ],
      "stateMutability": "view",
      "type": "function"
    },
    {
      "inputs": [],
      "name": "USDT_rate",
      "outputs": [
        {
          "internalType": "uint256",
          "name": "",
          "type": "uint256"
        }
      ],
      "stateMutability": "view",
      "type": "function"
    },
    {
      "inputs": [],
      "name": "_wallet",
      "outputs": [
        {
          "internalType": "address payable",
          "name": "",
          "type": "address"
        }
      ],
      "stateMutability": "view",
      "type": "function"
    },
    {
      "inputs": [],
      "name": "buyTokenByBNB",
      "outputs": [],
      "stateMutability": "payable",
      "type": "function"
    },
    {
      "inputs": [
        {
          "internalType": "uint256",
          "name": "usdtAmount",
          "type": "uint256"
        }
      ],
      "name": "buyTokenByUSDT",
      "outputs": [],
      "stateMutability": "nonpayable",
      "type": "function"
    },
    {
      "inputs": [
        {
          "internalType": "uint256",
          "name": "bnbAmount",
          "type": "uint256"
        }
      ],
      "name": "getTokenAmountBNB",
      "outputs": [
        {
          "internalType": "uint256",
          "name": "",
          "type": "uint256"
        }
      ],
      "stateMutability": "view",
      "type": "function"
    },
    {
      "inputs": [
        {
          "internalType": "uint256",
          "name": "usdtAmount",
          "type": "uint256"
        }
      ],
      "name": "getTokenAmountUSDT",
      "outputs": [
        {
          "internalType": "uint256",
          "name": "",
          "type": "uint256"
        }
      ],
      "stateMutability": "view",
      "type": "function"
    },
    {
      "inputs": [],
      "name": "owner",
      "outputs": [
        {
          "internalType": "address",
          "name": "",
          "type": "address"
        }
      ],
      "stateMutability": "view",
      "type": "function"
    },
    {
      "inputs": [],
      "name": "renounceOwnership",
      "outputs": [],
      "stateMutability": "nonpayable",
      "type": "function"
    },
    {
      "inputs": [
        {
          "internalType": "uint256",
          "name": "new_rate",
          "type": "uint256"
        }
      ],
      "name": "setBNBRate",
      "outputs": [],
      "stateMutability": "nonpayable",
      "type": "function"
    },
    {
      "inputs": [
        {
          "internalType": "uint256",
          "name": "new_rate",
          "type": "uint256"
        }
      ],
      "name": "setUSDTRate",
      "outputs": [],
      "stateMutability": "nonpayable",
      "type": "function"
    },
    {
      "inputs": [],
      "name": "token",
      "outputs": [
        {
          "internalType": "contract IERC20",
          "name": "",
          "type": "address"
        }
      ],
      "stateMutability": "view",
      "type": "function"
    },
    {
      "inputs": [
        {
          "internalType": "address",
          "name": "newOwner",
          "type": "address"
        }
      ],
      "name": "transferOwnership",
      "outputs": [],
      "stateMutability": "nonpayable",
      "type": "function"
    },
    {
      "inputs": [],
      "name": "usdtToken",
      "outputs": [
        {
          "internalType": "contract IERC20",
          "name": "",
          "type": "address"
        }
      ],
      "stateMutability": "view",
      "type": "function"
    },
    {
      "inputs": [],
      "name": "withdraw",
      "outputs": [],
      "stateMutability": "nonpayable",
      "type": "function"
    },
    {
      "inputs": [],
      "name": "withdrawErc20",
      "outputs": [],
      "stateMutability": "nonpayable",
      "type": "function"
    }
  ],
  "bytecode": "0x60806040523480156200001157600080fd5b5060405162001f0a38038062001f0a8339818101604052810190620000379190620002fd565b620000576200004b6200013360201b60201c565b6200013b60201b60201c565b846002819055508360038190555082600160006101000a81548173ffffffffffffffffffffffffffffffffffffffff021916908373ffffffffffffffffffffffffffffffffffffffff16021790555081600460006101000a81548173ffffffffffffffffffffffffffffffffffffffff021916908373ffffffffffffffffffffffffffffffffffffffff16021790555080600560006101000a81548173ffffffffffffffffffffffffffffffffffffffff021916908373ffffffffffffffffffffffffffffffffffffffff160217905550505050505062000385565b600033905090565b60008060009054906101000a900473ffffffffffffffffffffffffffffffffffffffff169050816000806101000a81548173ffffffffffffffffffffffffffffffffffffffff021916908373ffffffffffffffffffffffffffffffffffffffff1602179055508173ffffffffffffffffffffffffffffffffffffffff168173ffffffffffffffffffffffffffffffffffffffff167f8be0079c531659141344cd1fd0a4f28419497f9722a3daafe3b4186f6b6457e060405160405180910390a35050565b600080fd5b6000819050919050565b620002198162000204565b81146200022557600080fd5b50565b60008151905062000239816200020e565b92915050565b600073ffffffffffffffffffffffffffffffffffffffff82169050919050565b60006200026c826200023f565b9050919050565b6200027e816200025f565b81146200028a57600080fd5b50565b6000815190506200029e8162000273565b92915050565b6000620002b1826200023f565b9050919050565b6000620002c582620002a4565b9050919050565b620002d781620002b8565b8114620002e357600080fd5b50565b600081519050620002f781620002cc565b92915050565b600080600080600060a086880312156200031c576200031b620001ff565b5b60006200032c8882890162000228565b95505060206200033f8882890162000228565b945050604062000352888289016200028d565b93505060606200036588828901620002e6565b92505060806200037888828901620002e6565b9150509295509295909350565b611b7580620003956000396000f3fe6080604052600436106100f35760003560e01c8063610757e41161008a578063acb03d4311610059578063acb03d43146102ad578063c5d15651146102ea578063f2fde38b14610313578063fc0c546a1461033c576100f3565b8063610757e414610215578063715018a6146102405780638da5cb5b14610257578063a98ad46c14610282576100f3565b806331927737116100c657806331927737146101b25780633ccfd60b146101bc5780633e3f2359146101d3578063592a00e4146101ea576100f3565b8063157fc821146100f85780631832d8b6146101235780631b4622d6146101605780632be8629914610189575b600080fd5b34801561010457600080fd5b5061010d610367565b60405161011a919061134c565b60405180910390f35b34801561012f57600080fd5b5061014a60048036038101906101459190611398565b61036d565b604051610157919061134c565b60405180910390f35b34801561016c57600080fd5b5061018760048036038101906101829190611398565b610384565b005b34801561019557600080fd5b506101b060048036038101906101ab9190611398565b610441565b005b6101ba6104fe565b005b3480156101c857600080fd5b506101d161075e565b005b3480156101df57600080fd5b506101e8610823565b005b3480156101f657600080fd5b506101ff6109dd565b60405161020c919061134c565b60405180910390f35b34801561022157600080fd5b5061022a6109e3565b6040516102379190611406565b60405180910390f35b34801561024c57600080fd5b50610255610a09565b005b34801561026357600080fd5b5061026c610a91565b6040516102799190611442565b60405180910390f35b34801561028e57600080fd5b50610297610aba565b6040516102a491906114bc565b60405180910390f35b3480156102b957600080fd5b506102d460048036038101906102cf9190611398565b610ae0565b6040516102e1919061134c565b60405180910390f35b3480156102f657600080fd5b50610311600480360381019061030c9190611398565b610af7565b005b34801561031f57600080fd5b5061033a60048036038101906103359190611503565b610dbd565b005b34801561034857600080fd5b50610351610eb5565b60405161035e91906114bc565b60405180910390f35b60025481565b60006003548261037d919061155f565b9050919050565b61038c610edb565b73ffffffffffffffffffffffffffffffffffffffff166103aa610a91565b73ffffffffffffffffffffffffffffffffffffffff1614610400576040517f08c379a00000000000000000000000000000000000000000000000000000000081526004016103f790611616565b60405180910390fd5b806003819055507fbdaa37e3f6679857d8c3e80d172bd45af732a8658cf1d690c81ca96f5a443b5b81604051610436919061134c565b60405180910390a150565b610449610edb565b73ffffffffffffffffffffffffffffffffffffffff16610467610a91565b73ffffffffffffffffffffffffffffffffffffffff16146104bd576040517f08c379a00000000000000000000000000000000000000000000000000000000081526004016104b490611616565b60405180910390fd5b806002819055507fb0cc740bbbfcd5af22ee3956c6b44d2d6f499e2a86cb11d915fcce88dca2113a816040516104f3919061134c565b60405180910390a150565b6000349050600061050e82610ae0565b905060008111610553576040517f08c379a000000000000000000000000000000000000000000000000000000000815260040161054a90611682565b60405180910390fd5b80600460009054906101000a900473ffffffffffffffffffffffffffffffffffffffff1673ffffffffffffffffffffffffffffffffffffffff166370a08231306040518263ffffffff1660e01b81526004016105af9190611442565b602060405180830381865afa1580156105cc573d6000803e3d6000fd5b505050506040513d601f19601f820116820180604052508101906105f091906116b7565b1015610631576040517f08c379a000000000000000000000000000000000000000000000000000000000815260040161062890611730565b60405180910390fd5b813373ffffffffffffffffffffffffffffffffffffffff1631101561068b576040517f08c379a000000000000000000000000000000000000000000000000000000000815260040161068290611730565b60405180910390fd5b600160009054906101000a900473ffffffffffffffffffffffffffffffffffffffff1673ffffffffffffffffffffffffffffffffffffffff166108fc839081150290604051600060405180830381858888f193505050501580156106f3573d6000803e3d6000fd5b50610721600460009054906101000a900473ffffffffffffffffffffffffffffffffffffffff163383610ee3565b7ff695091b71a5c3ea41510251da89a66470bbcf1ee118f820a1bab8739e29ea503382604051610752929190611750565b60405180910390a15050565b610766610edb565b73ffffffffffffffffffffffffffffffffffffffff16610784610a91565b73ffffffffffffffffffffffffffffffffffffffff16146107da576040517f08c379a00000000000000000000000000000000000000000000000000000000081526004016107d190611616565b60405180910390fd5b3373ffffffffffffffffffffffffffffffffffffffff166108fc479081150290604051600060405180830381858888f19350505050158015610820573d6000803e3d6000fd5b50565b61082b610edb565b73ffffffffffffffffffffffffffffffffffffffff16610849610a91565b73ffffffffffffffffffffffffffffffffffffffff161461089f576040517f08c379a000000000000000000000000000000000000000000000000000000000815260040161089690611616565b60405180910390fd5b600560009054906101000a900473ffffffffffffffffffffffffffffffffffffffff1673ffffffffffffffffffffffffffffffffffffffff1663a9059cbb33600560009054906101000a900473ffffffffffffffffffffffffffffffffffffffff1673ffffffffffffffffffffffffffffffffffffffff166370a08231306040518263ffffffff1660e01b81526004016109399190611442565b602060405180830381865afa158015610956573d6000803e3d6000fd5b505050506040513d601f19601f8201168201806040525081019061097a91906116b7565b6040518363ffffffff1660e01b8152600401610997929190611750565b6020604051808303816000875af11580156109b6573d6000803e3d6000fd5b505050506040513d601f19601f820116820180604052508101906109da91906117b1565b50565b60035481565b600160009054906101000a900473ffffffffffffffffffffffffffffffffffffffff1681565b610a11610edb565b73ffffffffffffffffffffffffffffffffffffffff16610a2f610a91565b73ffffffffffffffffffffffffffffffffffffffff1614610a85576040517f08c379a0000000000000000000000000000000000000000000000000000000008152600401610a7c90611616565b60405180910390fd5b610a8f6000610f69565b565b60008060009054906101000a900473ffffffffffffffffffffffffffffffffffffffff16905090565b600560009054906101000a900473ffffffffffffffffffffffffffffffffffffffff1681565b600060025482610af0919061155f565b9050919050565b6000610b028261036d565b905081600560009054906101000a900473ffffffffffffffffffffffffffffffffffffffff1673ffffffffffffffffffffffffffffffffffffffff166370a08231336040518263ffffffff1660e01b8152600401610b609190611442565b602060405180830381865afa158015610b7d573d6000803e3d6000fd5b505050506040513d601f19601f82011682018060405250810190610ba191906116b7565b1015610be2576040517f08c379a0000000000000000000000000000000000000000000000000000000008152600401610bd990611730565b60405180910390fd5b60008111610c25576040517f08c379a0000000000000000000000000000000000000000000000000000000008152600401610c1c90611682565b60405180910390fd5b80600460009054906101000a900473ffffffffffffffffffffffffffffffffffffffff1673ffffffffffffffffffffffffffffffffffffffff166370a08231306040518263ffffffff1660e01b8152600401610c819190611442565b602060405180830381865afa158015610c9e573d6000803e3d6000fd5b505050506040513d601f19601f82011682018060405250810190610cc291906116b7565b1015610d03576040517f08c379a0000000000000000000000000000000000000000000000000000000008152600401610cfa90611730565b60405180910390fd5b610d53600560009054906101000a900473ffffffffffffffffffffffffffffffffffffffff1633600160009054906101000a900473ffffffffffffffffffffffffffffffffffffffff168561102d565b610d80600460009054906101000a900473ffffffffffffffffffffffffffffffffffffffff163383610ee3565b7f5c0161fad3fa89cfebd4a74115d9f81661cdd1b9008d05a238ea9d65088e20643382604051610db1929190611750565b60405180910390a15050565b610dc5610edb565b73ffffffffffffffffffffffffffffffffffffffff16610de3610a91565b73ffffffffffffffffffffffffffffffffffffffff1614610e39576040517f08c379a0000000000000000000000000000000000000000000000000000000008152600401610e3090611616565b60405180910390fd5b600073ffffffffffffffffffffffffffffffffffffffff168173ffffffffffffffffffffffffffffffffffffffff161415610ea9576040517f08c379a0000000000000000000000000000000000000000000000000000000008152600401610ea090611850565b60405180910390fd5b610eb281610f69565b50565b600460009054906101000a900473ffffffffffffffffffffffffffffffffffffffff1681565b600033905090565b610f648363a9059cbb60e01b8484604051602401610f02929190611750565b604051602081830303815290604052907bffffffffffffffffffffffffffffffffffffffffffffffffffffffff19166020820180517bffffffffffffffffffffffffffffffffffffffffffffffffffffffff83818316178352505050506110b6565b505050565b60008060009054906101000a900473ffffffffffffffffffffffffffffffffffffffff169050816000806101000a81548173ffffffffffffffffffffffffffffffffffffffff021916908373ffffffffffffffffffffffffffffffffffffffff1602179055508173ffffffffffffffffffffffffffffffffffffffff168173ffffffffffffffffffffffffffffffffffffffff167f8be0079c531659141344cd1fd0a4f28419497f9722a3daafe3b4186f6b6457e060405160405180910390a35050565b6110b0846323b872dd60e01b85858560405160240161104e93929190611870565b604051602081830303815290604052907bffffffffffffffffffffffffffffffffffffffffffffffffffffffff19166020820180517bffffffffffffffffffffffffffffffffffffffffffffffffffffffff83818316178352505050506110b6565b50505050565b6000611118826040518060400160405280602081526020017f5361666545524332303a206c6f772d6c6576656c2063616c6c206661696c65648152508573ffffffffffffffffffffffffffffffffffffffff1661117d9092919063ffffffff16565b9050600081511115611178578080602001905181019061113891906117b1565b611177576040517f08c379a000000000000000000000000000000000000000000000000000000000815260040161116e90611919565b60405180910390fd5b5b505050565b606061118c8484600085611195565b90509392505050565b6060824710156111da576040517f08c379a00000000000000000000000000000000000000000000000000000000081526004016111d1906119ab565b60405180910390fd5b6111e3856112a9565b611222576040517f08c379a000000000000000000000000000000000000000000000000000000000815260040161121990611a17565b60405180910390fd5b6000808673ffffffffffffffffffffffffffffffffffffffff16858760405161124b9190611ab1565b60006040518083038185875af1925050503d8060008114611288576040519150601f19603f3d011682016040523d82523d6000602084013e61128d565b606091505b509150915061129d8282866112cc565b92505050949350505050565b6000808273ffffffffffffffffffffffffffffffffffffffff163b119050919050565b606083156112dc5782905061132c565b6000835111156112ef5782518084602001fd5b816040517f08c379a00000000000000000000000000000000000000000000000000000000081526004016113239190611b1d565b60405180910390fd5b9392505050565b6000819050919050565b61134681611333565b82525050565b6000602082019050611361600083018461133d565b92915050565b600080fd5b61137581611333565b811461138057600080fd5b50565b6000813590506113928161136c565b92915050565b6000602082840312156113ae576113ad611367565b5b60006113bc84828501611383565b91505092915050565b600073ffffffffffffffffffffffffffffffffffffffff82169050919050565b60006113f0826113c5565b9050919050565b611400816113e5565b82525050565b600060208201905061141b60008301846113f7565b92915050565b600061142c826113c5565b9050919050565b61143c81611421565b82525050565b60006020820190506114576000830184611433565b92915050565b6000819050919050565b600061148261147d611478846113c5565b61145d565b6113c5565b9050919050565b600061149482611467565b9050919050565b60006114a682611489565b9050919050565b6114b68161149b565b82525050565b60006020820190506114d160008301846114ad565b92915050565b6114e081611421565b81146114eb57600080fd5b50565b6000813590506114fd816114d7565b92915050565b60006020828403121561151957611518611367565b5b6000611527848285016114ee565b91505092915050565b7f4e487b7100000000000000000000000000000000000000000000000000000000600052601160045260246000fd5b600061156a82611333565b915061157583611333565b9250817fffffffffffffffffffffffffffffffffffffffffffffffffffffffffffffffff04831182151516156115ae576115ad611530565b5b828202905092915050565b600082825260208201905092915050565b7f4f776e61626c653a2063616c6c6572206973206e6f7420746865206f776e6572600082015250565b60006116006020836115b9565b915061160b826115ca565b602082019050919050565b6000602082019050818103600083015261162f816115f3565b9050919050565b7f416d6f756e74206973207a65726f000000000000000000000000000000000000600082015250565b600061166c600e836115b9565b915061167782611636565b602082019050919050565b6000602082019050818103600083015261169b8161165f565b9050919050565b6000815190506116b18161136c565b92915050565b6000602082840312156116cd576116cc611367565b5b60006116db848285016116a2565b91505092915050565b7f496e73756666696369656e74206163636f756e742062616c616e636500000000600082015250565b600061171a601c836115b9565b9150611725826116e4565b602082019050919050565b600060208201905081810360008301526117498161170d565b9050919050565b60006040820190506117656000830185611433565b611772602083018461133d565b9392505050565b60008115159050919050565b61178e81611779565b811461179957600080fd5b50565b6000815190506117ab81611785565b92915050565b6000602082840312156117c7576117c6611367565b5b60006117d58482850161179c565b91505092915050565b7f4f776e61626c653a206e6577206f776e657220697320746865207a65726f206160008201527f6464726573730000000000000000000000000000000000000000000000000000602082015250565b600061183a6026836115b9565b9150611845826117de565b604082019050919050565b600060208201905081810360008301526118698161182d565b9050919050565b60006060820190506118856000830186611433565b6118926020830185611433565b61189f604083018461133d565b949350505050565b7f5361666545524332303a204552433230206f7065726174696f6e20646964206e60008201527f6f74207375636365656400000000000000000000000000000000000000000000602082015250565b6000611903602a836115b9565b915061190e826118a7565b604082019050919050565b60006020820190508181036000830152611932816118f6565b9050919050565b7f416464726573733a20696e73756666696369656e742062616c616e636520666f60008201527f722063616c6c0000000000000000000000000000000000000000000000000000602082015250565b60006119956026836115b9565b91506119a082611939565b604082019050919050565b600060208201905081810360008301526119c481611988565b9050919050565b7f416464726573733a2063616c6c20746f206e6f6e2d636f6e7472616374000000600082015250565b6000611a01601d836115b9565b9150611a0c826119cb565b602082019050919050565b60006020820190508181036000830152611a30816119f4565b9050919050565b600081519050919050565b600081905092915050565b60005b83811015611a6b578082015181840152602081019050611a50565b83811115611a7a576000848401525b50505050565b6000611a8b82611a37565b611a958185611a42565b9350611aa5818560208601611a4d565b80840191505092915050565b6000611abd8284611a80565b915081905092915050565b600081519050919050565b6000601f19601f8301169050919050565b6000611aef82611ac8565b611af981856115b9565b9350611b09818560208601611a4d565b611b1281611ad3565b840191505092915050565b60006020820190508181036000830152611b378184611ae4565b90509291505056fea2646970667358221220b8f2251616c8d852f98914623d5e4f738979a3f59fcaa74c672d1714665b372364736f6c634300080a0033",
  "linkReferences": {},
  "deployedLinkReferences": {}
}