{
  "_format": "hh-sol-artifact-1",
  "contractName": "Hero",
  "sourceName": "contracts/Hero.sol",
  "abi": [
    {
      "inputs": [],
      "stateMutability": "nonpayable",
      "type": "constructor"
    },
    {
      "anonymous": false,
      "inputs": [
        {
          "indexed": true,
          "internalType": "address",
          "name": "owner",
          "type": "address"
        },
        {
          "indexed": true,
          "internalType": "address",
          "name": "approved",
          "type": "address"
        },
        {
          "indexed": true,
          "internalType": "uint256",
          "name": "tokenId",
          "type": "uint256"
        }
      ],
      "name": "Approval",
      "type": "event"
    },
    {
      "anonymous": false,
      "inputs": [
        {
          "indexed": true,
          "internalType": "address",
          "name": "owner",
          "type": "address"
        },
        {
          "indexed": true,
          "internalType": "address",
          "name": "operator",
          "type": "address"
        },
        {
          "indexed": false,
          "internalType": "bool",
          "name": "approved",
          "type": "bool"
        }
      ],
      "name": "ApprovalForAll",
      "type": "event"
    },
    {
      "anonymous": false,
      "inputs": [
        {
          "indexed": false,
          "internalType": "address",
          "name": "to",
          "type": "address"
        },
        {
          "indexed": false,
          "internalType": "uint256",
          "name": "hero_type",
          "type": "uint256"
        },
        {
          "indexed": false,
          "internalType": "uint256",
          "name": "tokenId",
          "type": "uint256"
        }
      ],
      "name": "Mint",
      "type": "event"
    },
    {
      "anonymous": false,
      "inputs": [
        {
          "indexed": true,
          "internalType": "address",
          "name": "previousOwner",
          "type": "address"
        },
        {
          "indexed": true,
          "internalType": "address",
          "name": "newOwner",
          "type": "address"
        }
      ],
      "name": "OwnershipTransferred",
      "type": "event"
    },
    {
      "anonymous": false,
      "inputs": [
        {
          "indexed": true,
          "internalType": "bytes32",
          "name": "role",
          "type": "bytes32"
        },
        {
          "indexed": true,
          "internalType": "bytes32",
          "name": "previousAdminRole",
          "type": "bytes32"
        },
        {
          "indexed": true,
          "internalType": "bytes32",
          "name": "newAdminRole",
          "type": "bytes32"
        }
      ],
      "name": "RoleAdminChanged",
      "type": "event"
    },
    {
      "anonymous": false,
      "inputs": [
        {
          "indexed": true,
          "internalType": "bytes32",
          "name": "role",
          "type": "bytes32"
        },
        {
          "indexed": true,
          "internalType": "address",
          "name": "account",
          "type": "address"
        },
        {
          "indexed": true,
          "internalType": "address",
          "name": "sender",
          "type": "address"
        }
      ],
      "name": "RoleGranted",
      "type": "event"
    },
    {
      "anonymous": false,
      "inputs": [
        {
          "indexed": true,
          "internalType": "bytes32",
          "name": "role",
          "type": "bytes32"
        },
        {
          "indexed": true,
          "internalType": "address",
          "name": "account",
          "type": "address"
        },
        {
          "indexed": true,
          "internalType": "address",
          "name": "sender",
          "type": "address"
        }
      ],
      "name": "RoleRevoked",
      "type": "event"
    },
    {
      "anonymous": false,
      "inputs": [
        {
          "indexed": true,
          "internalType": "address",
          "name": "from",
          "type": "address"
        },
        {
          "indexed": true,
          "internalType": "address",
          "name": "to",
          "type": "address"
        },
        {
          "indexed": true,
          "internalType": "uint256",
          "name": "tokenId",
          "type": "uint256"
        }
      ],
      "name": "Transfer",
      "type": "event"
    },
    {
      "inputs": [],
      "name": "DEFAULT_ADMIN_ROLE",
      "outputs": [
        {
          "internalType": "bytes32",
          "name": "",
          "type": "bytes32"
        }
      ],
      "stateMutability": "view",
      "type": "function"
    },
    {
      "inputs": [],
      "name": "MINTER_ROLE",
      "outputs": [
        {
          "internalType": "bytes32",
          "name": "",
          "type": "bytes32"
        }
      ],
      "stateMutability": "view",
      "type": "function"
    },
    {
      "inputs": [
        {
          "internalType": "address",
          "name": "to",
          "type": "address"
        },
        {
          "internalType": "uint256",
          "name": "tokenId",
          "type": "uint256"
        }
      ],
      "name": "approve",
      "outputs": [],
      "stateMutability": "nonpayable",
      "type": "function"
    },
    {
      "inputs": [
        {
          "internalType": "address",
          "name": "owner",
          "type": "address"
        }
      ],
      "name": "balanceOf",
      "outputs": [
        {
          "internalType": "uint256",
          "name": "",
          "type": "uint256"
        }
      ],
      "stateMutability": "view",
      "type": "function"
    },
    {
      "inputs": [
        {
          "internalType": "uint256",
          "name": "tokenId",
          "type": "uint256"
        }
      ],
      "name": "getApproved",
      "outputs": [
        {
          "internalType": "address",
          "name": "",
          "type": "address"
        }
      ],
      "stateMutability": "view",
      "type": "function"
    },
    {
      "inputs": [
        {
          "internalType": "bytes32",
          "name": "role",
          "type": "bytes32"
        }
      ],
      "name": "getRoleAdmin",
      "outputs": [
        {
          "internalType": "bytes32",
          "name": "",
          "type": "bytes32"
        }
      ],
      "stateMutability": "view",
      "type": "function"
    },
    {
      "inputs": [
        {
          "internalType": "bytes32",
          "name": "role",
          "type": "bytes32"
        },
        {
          "internalType": "uint256",
          "name": "index",
          "type": "uint256"
        }
      ],
      "name": "getRoleMember",
      "outputs": [
        {
          "internalType": "address",
          "name": "",
          "type": "address"
        }
      ],
      "stateMutability": "view",
      "type": "function"
    },
    {
      "inputs": [
        {
          "internalType": "bytes32",
          "name": "role",
          "type": "bytes32"
        }
      ],
      "name": "getRoleMemberCount",
      "outputs": [
        {
          "internalType": "uint256",
          "name": "",
          "type": "uint256"
        }
      ],
      "stateMutability": "view",
      "type": "function"
    },
    {
      "inputs": [
        {
          "internalType": "bytes32",
          "name": "role",
          "type": "bytes32"
        },
        {
          "internalType": "address",
          "name": "account",
          "type": "address"
        }
      ],
      "name": "grantRole",
      "outputs": [],
      "stateMutability": "nonpayable",
      "type": "function"
    },
    {
      "inputs": [
        {
          "internalType": "bytes32",
          "name": "role",
          "type": "bytes32"
        },
        {
          "internalType": "address",
          "name": "account",
          "type": "address"
        }
      ],
      "name": "hasRole",
      "outputs": [
        {
          "internalType": "bool",
          "name": "",
          "type": "bool"
        }
      ],
      "stateMutability": "view",
      "type": "function"
    },
    {
      "inputs": [
        {
          "internalType": "address",
          "name": "owner",
          "type": "address"
        },
        {
          "internalType": "address",
          "name": "operator",
          "type": "address"
        }
      ],
      "name": "isApprovedForAll",
      "outputs": [
        {
          "internalType": "bool",
          "name": "",
          "type": "bool"
        }
      ],
      "stateMutability": "view",
      "type": "function"
    },
    {
      "inputs": [
        {
          "internalType": "address",
          "name": "owner",
          "type": "address"
        }
      ],
      "name": "listTokenIds",
      "outputs": [
        {
          "internalType": "uint256[]",
          "name": "tokenIds",
          "type": "uint256[]"
        }
      ],
      "stateMutability": "view",
      "type": "function"
    },
    {
      "inputs": [
        {
          "internalType": "address",
          "name": "to",
          "type": "address"
        },
        {
          "internalType": "uint256",
          "name": "hero_type",
          "type": "uint256"
        }
      ],
      "name": "mint",
      "outputs": [
        {
          "internalType": "uint256",
          "name": "",
          "type": "uint256"
        }
      ],
      "stateMutability": "nonpayable",
      "type": "function"
    },
    {
      "inputs": [],
      "name": "name",
      "outputs": [
        {
          "internalType": "string",
          "name": "",
          "type": "string"
        }
      ],
      "stateMutability": "view",
      "type": "function"
    },
    {
      "inputs": [],
      "name": "owner",
      "outputs": [
        {
          "internalType": "address",
          "name": "",
          "type": "address"
        }
      ],
      "stateMutability": "view",
      "type": "function"
    },
    {
      "inputs": [
        {
          "internalType": "uint256",
          "name": "tokenId",
          "type": "uint256"
        }
      ],
      "name": "ownerOf",
      "outputs": [
        {
          "internalType": "address",
          "name": "",
          "type": "address"
        }
      ],
      "stateMutability": "view",
      "type": "function"
    },
    {
      "inputs": [],
      "name": "renounceOwnership",
      "outputs": [],
      "stateMutability": "nonpayable",
      "type": "function"
    },
    {
      "inputs": [
        {
          "internalType": "bytes32",
          "name": "role",
          "type": "bytes32"
        },
        {
          "internalType": "address",
          "name": "account",
          "type": "address"
        }
      ],
      "name": "renounceRole",
      "outputs": [],
      "stateMutability": "nonpayable",
      "type": "function"
    },
    {
      "inputs": [
        {
          "internalType": "bytes32",
          "name": "role",
          "type": "bytes32"
        },
        {
          "internalType": "address",
          "name": "account",
          "type": "address"
        }
      ],
      "name": "revokeRole",
      "outputs": [],
      "stateMutability": "nonpayable",
      "type": "function"
    },
    {
      "inputs": [
        {
          "internalType": "address",
          "name": "from",
          "type": "address"
        },
        {
          "internalType": "address",
          "name": "to",
          "type": "address"
        },
        {
          "internalType": "uint256",
          "name": "tokenId",
          "type": "uint256"
        }
      ],
      "name": "safeTransferFrom",
      "outputs": [],
      "stateMutability": "nonpayable",
      "type": "function"
    },
    {
      "inputs": [
        {
          "internalType": "address",
          "name": "from",
          "type": "address"
        },
        {
          "internalType": "address",
          "name": "to",
          "type": "address"
        },
        {
          "internalType": "uint256",
          "name": "tokenId",
          "type": "uint256"
        },
        {
          "internalType": "bytes",
          "name": "_data",
          "type": "bytes"
        }
      ],
      "name": "safeTransferFrom",
      "outputs": [],
      "stateMutability": "nonpayable",
      "type": "function"
    },
    {
      "inputs": [
        {
          "internalType": "address",
          "name": "operator",
          "type": "address"
        },
        {
          "internalType": "bool",
          "name": "approved",
          "type": "bool"
        }
      ],
      "name": "setApprovalForAll",
      "outputs": [],
      "stateMutability": "nonpayable",
      "type": "function"
    },
    {
      "inputs": [
        {
          "internalType": "string",
          "name": "_newUrl",
          "type": "string"
        }
      ],
      "name": "setBaseUrl",
      "outputs": [],
      "stateMutability": "nonpayable",
      "type": "function"
    },
    {
      "inputs": [
        {
          "internalType": "bytes4",
          "name": "interfaceId",
          "type": "bytes4"
        }
      ],
      "name": "supportsInterface",
      "outputs": [
        {
          "internalType": "bool",
          "name": "",
          "type": "bool"
        }
      ],
      "stateMutability": "view",
      "type": "function"
    },
    {
      "inputs": [],
      "name": "symbol",
      "outputs": [
        {
          "internalType": "string",
          "name": "",
          "type": "string"
        }
      ],
      "stateMutability": "view",
      "type": "function"
    },
    {
      "inputs": [
        {
          "internalType": "uint256",
          "name": "index",
          "type": "uint256"
        }
      ],
      "name": "tokenByIndex",
      "outputs": [
        {
          "internalType": "uint256",
          "name": "",
          "type": "uint256"
        }
      ],
      "stateMutability": "view",
      "type": "function"
    },
    {
      "inputs": [
        {
          "internalType": "address",
          "name": "owner",
          "type": "address"
        },
        {
          "internalType": "uint256",
          "name": "index",
          "type": "uint256"
        }
      ],
      "name": "tokenOfOwnerByIndex",
      "outputs": [
        {
          "internalType": "uint256",
          "name": "",
          "type": "uint256"
        }
      ],
      "stateMutability": "view",
      "type": "function"
    },
    {
      "inputs": [
        {
          "internalType": "uint256",
          "name": "tokenId",
          "type": "uint256"
        }
      ],
      "name": "tokenURI",
      "outputs": [
        {
          "internalType": "string",
          "name": "",
          "type": "string"
        }
      ],
      "stateMutability": "view",
      "type": "function"
    },
    {
      "inputs": [],
      "name": "totalSupply",
      "outputs": [
        {
          "internalType": "uint256",
          "name": "",
          "type": "uint256"
        }
      ],
      "stateMutability": "view",
      "type": "function"
    },
    {
      "inputs": [
        {
          "internalType": "address",
          "name": "from",
          "type": "address"
        },
        {
          "internalType": "address",
          "name": "to",
          "type": "address"
        },
        {
          "internalType": "uint256",
          "name": "tokenId",
          "type": "uint256"
        }
      ],
      "name": "transferFrom",
      "outputs": [],
      "stateMutability": "nonpayable",
      "type": "function"
    },
    {
      "inputs": [
        {
          "internalType": "address",
          "name": "newOwner",
          "type": "address"
        }
      ],
      "name": "transferOwnership",
      "outputs": [],
      "stateMutability": "nonpayable",
      "type": "function"
    }
  ],
  "bytecode": "0x60806040523480156200001157600080fd5b506040518060400160405280600d81526020017f537469636b6d616e204865726f000000000000000000000000000000000000008152506040518060400160405280600481526020017f4865726f000000000000000000000000000000000000000000000000000000008152508160009080519060200190620000969291906200045a565b508060019080519060200190620000af9291906200045a565b505050620000d2620000c6620000fc60201b60201c565b6200010460201b60201c565b620000f66000801b620000ea620000fc60201b60201c565b620001ca60201b60201c565b6200056f565b600033905090565b6000600a60009054906101000a900473ffffffffffffffffffffffffffffffffffffffff16905081600a60006101000a81548173ffffffffffffffffffffffffffffffffffffffff021916908373ffffffffffffffffffffffffffffffffffffffff1602179055508173ffffffffffffffffffffffffffffffffffffffff168173ffffffffffffffffffffffffffffffffffffffff167f8be0079c531659141344cd1fd0a4f28419497f9722a3daafe3b4186f6b6457e060405160405180910390a35050565b620001dc8282620001e060201b60201c565b5050565b620001f782826200022860201b620013cc1760201c565b6200022381600c60008581526020019081526020016000206200031a60201b620014ad1790919060201c565b505050565b6200023a82826200035260201b60201c565b62000316576001600b600084815260200190815260200160002060000160008373ffffffffffffffffffffffffffffffffffffffff1673ffffffffffffffffffffffffffffffffffffffff16815260200190815260200160002060006101000a81548160ff021916908315150217905550620002bb620000fc60201b60201c565b73ffffffffffffffffffffffffffffffffffffffff168173ffffffffffffffffffffffffffffffffffffffff16837f2f8788117e7eff1d82e926ec794901d17c78024a50270940304540a733656f0d60405160405180910390a45b5050565b60006200034a836000018373ffffffffffffffffffffffffffffffffffffffff1660001b620003bd60201b60201c565b905092915050565b6000600b600084815260200190815260200160002060000160008373ffffffffffffffffffffffffffffffffffffffff1673ffffffffffffffffffffffffffffffffffffffff16815260200190815260200160002060009054906101000a900460ff16905092915050565b6000620003d183836200043760201b60201c565b6200042c57826000018290806001815401808255809150506001900390600052602060002001600090919091909150558260000180549050836001016000848152602001908152602001600020819055506001905062000431565b600090505b92915050565b600080836001016000848152602001908152602001600020541415905092915050565b828054620004689062000539565b90600052602060002090601f0160209004810192826200048c5760008555620004d8565b82601f10620004a757805160ff1916838001178555620004d8565b82800160010185558215620004d8579182015b82811115620004d7578251825591602001919060010190620004ba565b5b509050620004e79190620004eb565b5090565b5b8082111562000506576000816000905550600101620004ec565b5090565b7f4e487b7100000000000000000000000000000000000000000000000000000000600052602260045260246000fd5b600060028204905060018216806200055257607f821691505b602082108114156200056957620005686200050a565b5b50919050565b61487c806200057f6000396000f3fe608060405234801561001057600080fd5b50600436106101e55760003560e01c8063715018a61161010f578063c7c3268b116100a2578063d547741f11610071578063d547741f146105c8578063e2a4fad3146105e4578063e985e9c514610614578063f2fde38b14610644576101e5565b8063c7c3268b1461052e578063c87b56dd1461054a578063ca15c8731461057a578063d5391393146105aa576101e5565b806395d89b41116100de57806395d89b41146104ba578063a217fddf146104d8578063a22cb465146104f6578063b88d4fde14610512576101e5565b8063715018a6146104325780638da5cb5b1461043c5780639010d07c1461045a57806391d148541461048a576101e5565b80632f2ff15d1161018757806342842e0e1161015657806342842e0e146103865780634f6ccce7146103a25780636352211e146103d257806370a0823114610402576101e5565b80632f2ff15d146102ee5780632f745c591461030a57806336568abe1461033a57806340c10f1914610356576101e5565b8063095ea7b3116101c3578063095ea7b31461026857806318160ddd1461028457806323b872dd146102a2578063248a9ca3146102be576101e5565b806301ffc9a7146101ea57806306fdde031461021a578063081812fc14610238575b600080fd5b61020460048036038101906101ff9190612fe0565b610660565b6040516102119190613028565b60405180910390f35b610222610672565b60405161022f91906130dc565b60405180910390f35b610252600480360381019061024d9190613134565b610704565b60405161025f91906131a2565b60405180910390f35b610282600480360381019061027d91906131e9565b610789565b005b61028c6108a1565b6040516102999190613238565b60405180910390f35b6102bc60048036038101906102b79190613253565b6108ae565b005b6102d860048036038101906102d391906132dc565b61090e565b6040516102e59190613318565b60405180910390f35b61030860048036038101906103039190613333565b61092e565b005b610324600480360381019061031f91906131e9565b61094f565b6040516103319190613238565b60405180910390f35b610354600480360381019061034f9190613333565b6109f4565b005b610370600480360381019061036b91906131e9565b610a77565b60405161037d9190613238565b60405180910390f35b6103a0600480360381019061039b9190613253565b610b94565b005b6103bc60048036038101906103b79190613134565b610bb4565b6040516103c99190613238565b60405180910390f35b6103ec60048036038101906103e79190613134565b610c25565b6040516103f991906131a2565b60405180910390f35b61041c60048036038101906104179190613373565b610cd7565b6040516104299190613238565b60405180910390f35b61043a610d8f565b005b610444610e17565b60405161045191906131a2565b60405180910390f35b610474600480360381019061046f91906133a0565b610e41565b60405161048191906131a2565b60405180910390f35b6104a4600480360381019061049f9190613333565b610e70565b6040516104b19190613028565b60405180910390f35b6104c2610edb565b6040516104cf91906130dc565b60405180910390f35b6104e0610f6d565b6040516104ed9190613318565b60405180910390f35b610510600480360381019061050b919061340c565b610f74565b005b61052c60048036038101906105279190613581565b610f8a565b005b610548600480360381019061054391906136a5565b610fec565b005b610564600480360381019061055f9190613134565b611082565b60405161057191906130dc565b60405180910390f35b610594600480360381019061058f91906132dc565b611129565b6040516105a19190613238565b60405180910390f35b6105b261114d565b6040516105bf9190613318565b60405180910390f35b6105e260048036038101906105dd9190613333565b611171565b005b6105fe60048036038101906105f99190613373565b611192565b60405161060b91906137ac565b60405180910390f35b61062e600480360381019061062991906137ce565b611240565b60405161063b9190613028565b60405180910390f35b61065e60048036038101906106599190613373565b6112d4565b005b600061066b826114dd565b9050919050565b6060600080546106819061383d565b80601f01602080910402602001604051908101604052809291908181526020018280546106ad9061383d565b80156106fa5780601f106106cf576101008083540402835291602001916106fa565b820191906000526020600020905b8154815290600101906020018083116106dd57829003601f168201915b5050505050905090565b600061070f82611557565b61074e576040517f08c379a0000000000000000000000000000000000000000000000000000000008152600401610745906138e1565b60405180910390fd5b6004600083815260200190815260200160002060009054906101000a900473ffffffffffffffffffffffffffffffffffffffff169050919050565b600061079482610c25565b90508073ffffffffffffffffffffffffffffffffffffffff168373ffffffffffffffffffffffffffffffffffffffff161415610805576040517f08c379a00000000000000000000000000000000000000000000000000000000081526004016107fc90613973565b60405180910390fd5b8073ffffffffffffffffffffffffffffffffffffffff166108246115c3565b73ffffffffffffffffffffffffffffffffffffffff16148061085357506108528161084d6115c3565b611240565b5b610892576040517f08c379a000000000000000000000000000000000000000000000000000000000815260040161088990613a05565b60405180910390fd5b61089c83836115cb565b505050565b6000600880549050905090565b6108bf6108b96115c3565b82611684565b6108fe576040517f08c379a00000000000000000000000000000000000000000000000000000000081526004016108f590613a97565b60405180910390fd5b610909838383611762565b505050565b6000600b6000838152602001908152602001600020600101549050919050565b6109378261090e565b610940816119c9565b61094a83836119dd565b505050565b600061095a83610cd7565b821061099b576040517f08c379a000000000000000000000000000000000000000000000000000000000815260040161099290613b29565b60405180910390fd5b600660008473ffffffffffffffffffffffffffffffffffffffff1673ffffffffffffffffffffffffffffffffffffffff168152602001908152602001600020600083815260200190815260200160002054905092915050565b6109fc6115c3565b73ffffffffffffffffffffffffffffffffffffffff168173ffffffffffffffffffffffffffffffffffffffff1614610a69576040517f08c379a0000000000000000000000000000000000000000000000000000000008152600401610a6090613bbb565b60405180910390fd5b610a738282611a11565b5050565b6000610a816115c3565b73ffffffffffffffffffffffffffffffffffffffff16610a9f610e17565b73ffffffffffffffffffffffffffffffffffffffff161480610aee5750610aed7f9f2df0fed2c77648de5860a4cc508cd0818c85b8b8a1ab4ceeef8d981c8956a6610ae86115c3565b610e70565b5b610b2d576040517f08c379a0000000000000000000000000000000000000000000000000000000008152600401610b2490613c27565b60405180910390fd5b610b37600d611a45565b6000610b43600d611a5b565b9050610b4f8482611a69565b7f4c209b5fc8ad50758f13e2e1088ba56a560dff690a1c6fef26394f4c03821c4f848483604051610b8293929190613c47565b60405180910390a18091505092915050565b610baf83838360405180602001604052806000815250610f8a565b505050565b6000610bbe6108a1565b8210610bff576040517f08c379a0000000000000000000000000000000000000000000000000000000008152600401610bf690613cf0565b60405180910390fd5b60088281548110610c1357610c12613d10565b5b90600052602060002001549050919050565b6000806002600084815260200190815260200160002060009054906101000a900473ffffffffffffffffffffffffffffffffffffffff169050600073ffffffffffffffffffffffffffffffffffffffff168173ffffffffffffffffffffffffffffffffffffffff161415610cce576040517f08c379a0000000000000000000000000000000000000000000000000000000008152600401610cc590613db1565b60405180910390fd5b80915050919050565b60008073ffffffffffffffffffffffffffffffffffffffff168273ffffffffffffffffffffffffffffffffffffffff161415610d48576040517f08c379a0000000000000000000000000000000000000000000000000000000008152600401610d3f90613e43565b60405180910390fd5b600360008373ffffffffffffffffffffffffffffffffffffffff1673ffffffffffffffffffffffffffffffffffffffff168152602001908152602001600020549050919050565b610d976115c3565b73ffffffffffffffffffffffffffffffffffffffff16610db5610e17565b73ffffffffffffffffffffffffffffffffffffffff1614610e0b576040517f08c379a0000000000000000000000000000000000000000000000000000000008152600401610e0290613eaf565b60405180910390fd5b610e156000611c43565b565b6000600a60009054906101000a900473ffffffffffffffffffffffffffffffffffffffff16905090565b6000610e6882600c6000868152602001908152602001600020611d0990919063ffffffff16565b905092915050565b6000600b600084815260200190815260200160002060000160008373ffffffffffffffffffffffffffffffffffffffff1673ffffffffffffffffffffffffffffffffffffffff16815260200190815260200160002060009054906101000a900460ff16905092915050565b606060018054610eea9061383d565b80601f0160208091040260200160405190810160405280929190818152602001828054610f169061383d565b8015610f635780601f10610f3857610100808354040283529160200191610f63565b820191906000526020600020905b815481529060010190602001808311610f4657829003601f168201915b5050505050905090565b6000801b81565b610f86610f7f6115c3565b8383611d23565b5050565b610f9b610f956115c3565b83611684565b610fda576040517f08c379a0000000000000000000000000000000000000000000000000000000008152600401610fd190613a97565b60405180910390fd5b610fe684848484611e90565b50505050565b610ff46115c3565b73ffffffffffffffffffffffffffffffffffffffff16611012610e17565b73ffffffffffffffffffffffffffffffffffffffff1614611068576040517f08c379a000000000000000000000000000000000000000000000000000000000815260040161105f90613eaf565b60405180910390fd5b80600e908051906020019061107e929190612ed1565b5050565b606061108d82611557565b6110cc576040517f08c379a00000000000000000000000000000000000000000000000000000000081526004016110c390613f41565b60405180910390fd5b60006110d6611eec565b905060008151116110f65760405180602001604052806000815250611121565b8061110084611f7e565b604051602001611111929190613f9d565b6040516020818303038152906040525b915050919050565b6000611146600c60008481526020019081526020016000206120df565b9050919050565b7f9f2df0fed2c77648de5860a4cc508cd0818c85b8b8a1ab4ceeef8d981c8956a681565b61117a8261090e565b611183816119c9565b61118d8383611a11565b505050565b6060600061119f83610cd7565b905060008167ffffffffffffffff8111156111bd576111bc613456565b5b6040519080825280602002602001820160405280156111eb5781602001602082028036833780820191505090505b50905060005b8281101561123557611203858261094f565b82828151811061121657611215613d10565b5b602002602001018181525050808061122d90613ff0565b9150506111f1565b508092505050919050565b6000600560008473ffffffffffffffffffffffffffffffffffffffff1673ffffffffffffffffffffffffffffffffffffffff16815260200190815260200160002060008373ffffffffffffffffffffffffffffffffffffffff1673ffffffffffffffffffffffffffffffffffffffff16815260200190815260200160002060009054906101000a900460ff16905092915050565b6112dc6115c3565b73ffffffffffffffffffffffffffffffffffffffff166112fa610e17565b73ffffffffffffffffffffffffffffffffffffffff1614611350576040517f08c379a000000000000000000000000000000000000000000000000000000000815260040161134790613eaf565b60405180910390fd5b600073ffffffffffffffffffffffffffffffffffffffff168173ffffffffffffffffffffffffffffffffffffffff1614156113c0576040517f08c379a00000000000000000000000000000000000000000000000000000000081526004016113b7906140ab565b60405180910390fd5b6113c981611c43565b50565b6113d68282610e70565b6114a9576001600b600084815260200190815260200160002060000160008373ffffffffffffffffffffffffffffffffffffffff1673ffffffffffffffffffffffffffffffffffffffff16815260200190815260200160002060006101000a81548160ff02191690831515021790555061144e6115c3565b73ffffffffffffffffffffffffffffffffffffffff168173ffffffffffffffffffffffffffffffffffffffff16837f2f8788117e7eff1d82e926ec794901d17c78024a50270940304540a733656f0d60405160405180910390a45b5050565b60006114d5836000018373ffffffffffffffffffffffffffffffffffffffff1660001b6120f4565b905092915050565b60007f5a05180f000000000000000000000000000000000000000000000000000000007bffffffffffffffffffffffffffffffffffffffffffffffffffffffff1916827bffffffffffffffffffffffffffffffffffffffffffffffffffffffff19161480611550575061154f82612164565b5b9050919050565b60008073ffffffffffffffffffffffffffffffffffffffff166002600084815260200190815260200160002060009054906101000a900473ffffffffffffffffffffffffffffffffffffffff1673ffffffffffffffffffffffffffffffffffffffff1614159050919050565b600033905090565b816004600083815260200190815260200160002060006101000a81548173ffffffffffffffffffffffffffffffffffffffff021916908373ffffffffffffffffffffffffffffffffffffffff160217905550808273ffffffffffffffffffffffffffffffffffffffff1661163e83610c25565b73ffffffffffffffffffffffffffffffffffffffff167f8c5be1e5ebec7d5bd14f71427d1e84f3dd0314c0f7b2291e5b200ac8c7c3b92560405160405180910390a45050565b600061168f82611557565b6116ce576040517f08c379a00000000000000000000000000000000000000000000000000000000081526004016116c59061413d565b60405180910390fd5b60006116d983610c25565b90508073ffffffffffffffffffffffffffffffffffffffff168473ffffffffffffffffffffffffffffffffffffffff16148061171b575061171a8185611240565b5b8061175957508373ffffffffffffffffffffffffffffffffffffffff1661174184610704565b73ffffffffffffffffffffffffffffffffffffffff16145b91505092915050565b8273ffffffffffffffffffffffffffffffffffffffff1661178282610c25565b73ffffffffffffffffffffffffffffffffffffffff16146117d8576040517f08c379a00000000000000000000000000000000000000000000000000000000081526004016117cf906141cf565b60405180910390fd5b600073ffffffffffffffffffffffffffffffffffffffff168273ffffffffffffffffffffffffffffffffffffffff161415611848576040517f08c379a000000000000000000000000000000000000000000000000000000000815260040161183f90614261565b60405180910390fd5b6118538383836121de565b61185e6000826115cb565b6001600360008573ffffffffffffffffffffffffffffffffffffffff1673ffffffffffffffffffffffffffffffffffffffff16815260200190815260200160002060008282546118ae9190614281565b925050819055506001600360008473ffffffffffffffffffffffffffffffffffffffff1673ffffffffffffffffffffffffffffffffffffffff168152602001908152602001600020600082825461190591906142b5565b92505081905550816002600083815260200190815260200160002060006101000a81548173ffffffffffffffffffffffffffffffffffffffff021916908373ffffffffffffffffffffffffffffffffffffffff160217905550808273ffffffffffffffffffffffffffffffffffffffff168473ffffffffffffffffffffffffffffffffffffffff167fddf252ad1be2c89b69c2b068fc378daa952ba7f163c4a11628f55a4df523b3ef60405160405180910390a46119c48383836122f2565b505050565b6119da816119d56115c3565b6122f7565b50565b6119e782826113cc565b611a0c81600c60008581526020019081526020016000206114ad90919063ffffffff16565b505050565b611a1b8282612394565b611a4081600c600085815260200190815260200160002061247690919063ffffffff16565b505050565b6001816000016000828254019250508190555050565b600081600001549050919050565b600073ffffffffffffffffffffffffffffffffffffffff168273ffffffffffffffffffffffffffffffffffffffff161415611ad9576040517f08c379a0000000000000000000000000000000000000000000000000000000008152600401611ad090614357565b60405180910390fd5b611ae281611557565b15611b22576040517f08c379a0000000000000000000000000000000000000000000000000000000008152600401611b19906143c3565b60405180910390fd5b611b2e600083836121de565b6001600360008473ffffffffffffffffffffffffffffffffffffffff1673ffffffffffffffffffffffffffffffffffffffff1681526020019081526020016000206000828254611b7e91906142b5565b92505081905550816002600083815260200190815260200160002060006101000a81548173ffffffffffffffffffffffffffffffffffffffff021916908373ffffffffffffffffffffffffffffffffffffffff160217905550808273ffffffffffffffffffffffffffffffffffffffff16600073ffffffffffffffffffffffffffffffffffffffff167fddf252ad1be2c89b69c2b068fc378daa952ba7f163c4a11628f55a4df523b3ef60405160405180910390a4611c3f600083836122f2565b5050565b6000600a60009054906101000a900473ffffffffffffffffffffffffffffffffffffffff16905081600a60006101000a81548173ffffffffffffffffffffffffffffffffffffffff021916908373ffffffffffffffffffffffffffffffffffffffff1602179055508173ffffffffffffffffffffffffffffffffffffffff168173ffffffffffffffffffffffffffffffffffffffff167f8be0079c531659141344cd1fd0a4f28419497f9722a3daafe3b4186f6b6457e060405160405180910390a35050565b6000611d1883600001836124a6565b60001c905092915050565b8173ffffffffffffffffffffffffffffffffffffffff168373ffffffffffffffffffffffffffffffffffffffff161415611d92576040517f08c379a0000000000000000000000000000000000000000000000000000000008152600401611d899061442f565b60405180910390fd5b80600560008573ffffffffffffffffffffffffffffffffffffffff1673ffffffffffffffffffffffffffffffffffffffff16815260200190815260200160002060008473ffffffffffffffffffffffffffffffffffffffff1673ffffffffffffffffffffffffffffffffffffffff16815260200190815260200160002060006101000a81548160ff0219169083151502179055508173ffffffffffffffffffffffffffffffffffffffff168373ffffffffffffffffffffffffffffffffffffffff167f17307eab39ab6107e8899845ad3d59bd9653f200f220920489ca2b5937696c3183604051611e839190613028565b60405180910390a3505050565b611e9b848484611762565b611ea7848484846124d1565b611ee6576040517f08c379a0000000000000000000000000000000000000000000000000000000008152600401611edd906144c1565b60405180910390fd5b50505050565b6060600e8054611efb9061383d565b80601f0160208091040260200160405190810160405280929190818152602001828054611f279061383d565b8015611f745780601f10611f4957610100808354040283529160200191611f74565b820191906000526020600020905b815481529060010190602001808311611f5757829003601f168201915b5050505050905090565b60606000821415611fc6576040518060400160405280600181526020017f300000000000000000000000000000000000000000000000000000000000000081525090506120da565b600082905060005b60008214611ff8578080611fe190613ff0565b915050600a82611ff19190614510565b9150611fce565b60008167ffffffffffffffff81111561201457612013613456565b5b6040519080825280601f01601f1916602001820160405280156120465781602001600182028036833780820191505090505b5090505b600085146120d35760018261205f9190614281565b9150600a8561206e9190614541565b603061207a91906142b5565b60f81b8183815181106120905761208f613d10565b5b60200101907effffffffffffffffffffffffffffffffffffffffffffffffffffffffffffff1916908160001a905350600a856120cc9190614510565b945061204a565b8093505050505b919050565b60006120ed82600001612659565b9050919050565b6000612100838361266a565b61215957826000018290806001815401808255809150506001900390600052602060002001600090919091909150558260000180549050836001016000848152602001908152602001600020819055506001905061215e565b600090505b92915050565b60007f7965db0b000000000000000000000000000000000000000000000000000000007bffffffffffffffffffffffffffffffffffffffffffffffffffffffff1916827bffffffffffffffffffffffffffffffffffffffffffffffffffffffff191614806121d757506121d68261268d565b5b9050919050565b6121e9838383612707565b600073ffffffffffffffffffffffffffffffffffffffff168373ffffffffffffffffffffffffffffffffffffffff16141561222c576122278161270c565b61226b565b8173ffffffffffffffffffffffffffffffffffffffff168373ffffffffffffffffffffffffffffffffffffffff161461226a576122698382612755565b5b5b600073ffffffffffffffffffffffffffffffffffffffff168273ffffffffffffffffffffffffffffffffffffffff1614156122ae576122a9816128c2565b6122ed565b8273ffffffffffffffffffffffffffffffffffffffff168273ffffffffffffffffffffffffffffffffffffffff16146122ec576122eb8282612993565b5b5b505050565b505050565b6123018282610e70565b612390576123268173ffffffffffffffffffffffffffffffffffffffff166014612a12565b6123348360001c6020612a12565b60405160200161234592919061460a565b6040516020818303038152906040526040517f08c379a000000000000000000000000000000000000000000000000000000000815260040161238791906130dc565b60405180910390fd5b5050565b61239e8282610e70565b15612472576000600b600084815260200190815260200160002060000160008373ffffffffffffffffffffffffffffffffffffffff1673ffffffffffffffffffffffffffffffffffffffff16815260200190815260200160002060006101000a81548160ff0219169083151502179055506124176115c3565b73ffffffffffffffffffffffffffffffffffffffff168173ffffffffffffffffffffffffffffffffffffffff16837ff6391f5c32d9c69d2a47ea670b442974b53935d1edc7fd64eb21e047a839171b60405160405180910390a45b5050565b600061249e836000018373ffffffffffffffffffffffffffffffffffffffff1660001b612c4e565b905092915050565b60008260000182815481106124be576124bd613d10565b5b9060005260206000200154905092915050565b60006124f28473ffffffffffffffffffffffffffffffffffffffff16612d62565b1561264c578373ffffffffffffffffffffffffffffffffffffffff1663150b7a0261251b6115c3565b8786866040518563ffffffff1660e01b815260040161253d9493929190614699565b6020604051808303816000875af192505050801561257957506040513d601f19601f8201168201806040525081019061257691906146fa565b60015b6125fc573d80600081146125a9576040519150601f19603f3d011682016040523d82523d6000602084013e6125ae565b606091505b506000815114156125f4576040517f08c379a00000000000000000000000000000000000000000000000000000000081526004016125eb906144c1565b60405180910390fd5b805181602001fd5b63150b7a0260e01b7bffffffffffffffffffffffffffffffffffffffffffffffffffffffff1916817bffffffffffffffffffffffffffffffffffffffffffffffffffffffff191614915050612651565b600190505b949350505050565b600081600001805490509050919050565b600080836001016000848152602001908152602001600020541415905092915050565b60007f780e9d63000000000000000000000000000000000000000000000000000000007bffffffffffffffffffffffffffffffffffffffffffffffffffffffff1916827bffffffffffffffffffffffffffffffffffffffffffffffffffffffff1916148061270057506126ff82612d85565b5b9050919050565b505050565b6008805490506009600083815260200190815260200160002081905550600881908060018154018082558091505060019003906000526020600020016000909190919091505550565b6000600161276284610cd7565b61276c9190614281565b9050600060076000848152602001908152602001600020549050818114612851576000600660008673ffffffffffffffffffffffffffffffffffffffff1673ffffffffffffffffffffffffffffffffffffffff168152602001908152602001600020600084815260200190815260200160002054905080600660008773ffffffffffffffffffffffffffffffffffffffff1673ffffffffffffffffffffffffffffffffffffffff168152602001908152602001600020600084815260200190815260200160002081905550816007600083815260200190815260200160002081905550505b6007600084815260200190815260200160002060009055600660008573ffffffffffffffffffffffffffffffffffffffff1673ffffffffffffffffffffffffffffffffffffffff16815260200190815260200160002060008381526020019081526020016000206000905550505050565b600060016008805490506128d69190614281565b905060006009600084815260200190815260200160002054905060006008838154811061290657612905613d10565b5b90600052602060002001549050806008838154811061292857612927613d10565b5b90600052602060002001819055508160096000838152602001908152602001600020819055506009600085815260200190815260200160002060009055600880548061297757612976614727565b5b6001900381819060005260206000200160009055905550505050565b600061299e83610cd7565b905081600660008573ffffffffffffffffffffffffffffffffffffffff1673ffffffffffffffffffffffffffffffffffffffff168152602001908152602001600020600083815260200190815260200160002081905550806007600084815260200190815260200160002081905550505050565b606060006002836002612a259190614756565b612a2f91906142b5565b67ffffffffffffffff811115612a4857612a47613456565b5b6040519080825280601f01601f191660200182016040528015612a7a5781602001600182028036833780820191505090505b5090507f300000000000000000000000000000000000000000000000000000000000000081600081518110612ab257612ab1613d10565b5b60200101907effffffffffffffffffffffffffffffffffffffffffffffffffffffffffffff1916908160001a9053507f780000000000000000000000000000000000000000000000000000000000000081600181518110612b1657612b15613d10565b5b60200101907effffffffffffffffffffffffffffffffffffffffffffffffffffffffffffff1916908160001a90535060006001846002612b569190614756565b612b6091906142b5565b90505b6001811115612c00577f3031323334353637383961626364656600000000000000000000000000000000600f861660108110612ba257612ba1613d10565b5b1a60f81b828281518110612bb957612bb8613d10565b5b60200101907effffffffffffffffffffffffffffffffffffffffffffffffffffffffffffff1916908160001a905350600485901c945080612bf9906147b0565b9050612b63565b5060008414612c44576040517f08c379a0000000000000000000000000000000000000000000000000000000008152600401612c3b90614826565b60405180910390fd5b8091505092915050565b60008083600101600084815260200190815260200160002054905060008114612d56576000600182612c809190614281565b9050600060018660000180549050612c989190614281565b9050818114612d07576000866000018281548110612cb957612cb8613d10565b5b9060005260206000200154905080876000018481548110612cdd57612cdc613d10565b5b90600052602060002001819055508387600101600083815260200190815260200160002081905550505b85600001805480612d1b57612d1a614727565b5b600190038181906000526020600020016000905590558560010160008681526020019081526020016000206000905560019350505050612d5c565b60009150505b92915050565b6000808273ffffffffffffffffffffffffffffffffffffffff163b119050919050565b60007f80ac58cd000000000000000000000000000000000000000000000000000000007bffffffffffffffffffffffffffffffffffffffffffffffffffffffff1916827bffffffffffffffffffffffffffffffffffffffffffffffffffffffff19161480612e5057507f5b5e139f000000000000000000000000000000000000000000000000000000007bffffffffffffffffffffffffffffffffffffffffffffffffffffffff1916827bffffffffffffffffffffffffffffffffffffffffffffffffffffffff1916145b80612e605750612e5f82612e67565b5b9050919050565b60007f01ffc9a7000000000000000000000000000000000000000000000000000000007bffffffffffffffffffffffffffffffffffffffffffffffffffffffff1916827bffffffffffffffffffffffffffffffffffffffffffffffffffffffff1916149050919050565b828054612edd9061383d565b90600052602060002090601f016020900481019282612eff5760008555612f46565b82601f10612f1857805160ff1916838001178555612f46565b82800160010185558215612f46579182015b82811115612f45578251825591602001919060010190612f2a565b5b509050612f539190612f57565b5090565b5b80821115612f70576000816000905550600101612f58565b5090565b6000604051905090565b600080fd5b600080fd5b60007fffffffff0000000000000000000000000000000000000000000000000000000082169050919050565b612fbd81612f88565b8114612fc857600080fd5b50565b600081359050612fda81612fb4565b92915050565b600060208284031215612ff657612ff5612f7e565b5b600061300484828501612fcb565b91505092915050565b60008115159050919050565b6130228161300d565b82525050565b600060208201905061303d6000830184613019565b92915050565b600081519050919050565b600082825260208201905092915050565b60005b8381101561307d578082015181840152602081019050613062565b8381111561308c576000848401525b50505050565b6000601f19601f8301169050919050565b60006130ae82613043565b6130b8818561304e565b93506130c881856020860161305f565b6130d181613092565b840191505092915050565b600060208201905081810360008301526130f681846130a3565b905092915050565b6000819050919050565b613111816130fe565b811461311c57600080fd5b50565b60008135905061312e81613108565b92915050565b60006020828403121561314a57613149612f7e565b5b60006131588482850161311f565b91505092915050565b600073ffffffffffffffffffffffffffffffffffffffff82169050919050565b600061318c82613161565b9050919050565b61319c81613181565b82525050565b60006020820190506131b76000830184613193565b92915050565b6131c681613181565b81146131d157600080fd5b50565b6000813590506131e3816131bd565b92915050565b60008060408385031215613200576131ff612f7e565b5b600061320e858286016131d4565b925050602061321f8582860161311f565b9150509250929050565b613232816130fe565b82525050565b600060208201905061324d6000830184613229565b92915050565b60008060006060848603121561326c5761326b612f7e565b5b600061327a868287016131d4565b935050602061328b868287016131d4565b925050604061329c8682870161311f565b9150509250925092565b6000819050919050565b6132b9816132a6565b81146132c457600080fd5b50565b6000813590506132d6816132b0565b92915050565b6000602082840312156132f2576132f1612f7e565b5b6000613300848285016132c7565b91505092915050565b613312816132a6565b82525050565b600060208201905061332d6000830184613309565b92915050565b6000806040838503121561334a57613349612f7e565b5b6000613358858286016132c7565b9250506020613369858286016131d4565b9150509250929050565b60006020828403121561338957613388612f7e565b5b6000613397848285016131d4565b91505092915050565b600080604083850312156133b7576133b6612f7e565b5b60006133c5858286016132c7565b92505060206133d68582860161311f565b9150509250929050565b6133e98161300d565b81146133f457600080fd5b50565b600081359050613406816133e0565b92915050565b6000806040838503121561342357613422612f7e565b5b6000613431858286016131d4565b9250506020613442858286016133f7565b9150509250929050565b600080fd5b600080fd5b7f4e487b7100000000000000000000000000000000000000000000000000000000600052604160045260246000fd5b61348e82613092565b810181811067ffffffffffffffff821117156134ad576134ac613456565b5b80604052505050565b60006134c0612f74565b90506134cc8282613485565b919050565b600067ffffffffffffffff8211156134ec576134eb613456565b5b6134f582613092565b9050602081019050919050565b82818337600083830152505050565b600061352461351f846134d1565b6134b6565b9050828152602081018484840111156135405761353f613451565b5b61354b848285613502565b509392505050565b600082601f8301126135685761356761344c565b5b8135613578848260208601613511565b91505092915050565b6000806000806080858703121561359b5761359a612f7e565b5b60006135a9878288016131d4565b94505060206135ba878288016131d4565b93505060406135cb8782880161311f565b925050606085013567ffffffffffffffff8111156135ec576135eb612f83565b5b6135f887828801613553565b91505092959194509250565b600067ffffffffffffffff82111561361f5761361e613456565b5b61362882613092565b9050602081019050919050565b600061364861364384613604565b6134b6565b90508281526020810184848401111561366457613663613451565b5b61366f848285613502565b509392505050565b600082601f83011261368c5761368b61344c565b5b813561369c848260208601613635565b91505092915050565b6000602082840312156136bb576136ba612f7e565b5b600082013567ffffffffffffffff8111156136d9576136d8612f83565b5b6136e584828501613677565b91505092915050565b600081519050919050565b600082825260208201905092915050565b6000819050602082019050919050565b613723816130fe565b82525050565b6000613735838361371a565b60208301905092915050565b6000602082019050919050565b6000613759826136ee565b61376381856136f9565b935061376e8361370a565b8060005b8381101561379f5781516137868882613729565b975061379183613741565b925050600181019050613772565b5085935050505092915050565b600060208201905081810360008301526137c6818461374e565b905092915050565b600080604083850312156137e5576137e4612f7e565b5b60006137f3858286016131d4565b9250506020613804858286016131d4565b9150509250929050565b7f4e487b7100000000000000000000000000000000000000000000000000000000600052602260045260246000fd5b6000600282049050600182168061385557607f821691505b602082108114156138695761386861380e565b5b50919050565b7f4552433732313a20617070726f76656420717565727920666f72206e6f6e657860008201527f697374656e7420746f6b656e0000000000000000000000000000000000000000602082015250565b60006138cb602c8361304e565b91506138d68261386f565b604082019050919050565b600060208201905081810360008301526138fa816138be565b9050919050565b7f4552433732313a20617070726f76616c20746f2063757272656e74206f776e6560008201527f7200000000000000000000000000000000000000000000000000000000000000602082015250565b600061395d60218361304e565b915061396882613901565b604082019050919050565b6000602082019050818103600083015261398c81613950565b9050919050565b7f4552433732313a20617070726f76652063616c6c6572206973206e6f74206f7760008201527f6e6572206e6f7220617070726f76656420666f7220616c6c0000000000000000602082015250565b60006139ef60388361304e565b91506139fa82613993565b604082019050919050565b60006020820190508181036000830152613a1e816139e2565b9050919050565b7f4552433732313a207472616e736665722063616c6c6572206973206e6f74206f60008201527f776e6572206e6f7220617070726f766564000000000000000000000000000000602082015250565b6000613a8160318361304e565b9150613a8c82613a25565b604082019050919050565b60006020820190508181036000830152613ab081613a74565b9050919050565b7f455243373231456e756d657261626c653a206f776e657220696e646578206f7560008201527f74206f6620626f756e6473000000000000000000000000000000000000000000602082015250565b6000613b13602b8361304e565b9150613b1e82613ab7565b604082019050919050565b60006020820190508181036000830152613b4281613b06565b9050919050565b7f416363657373436f6e74726f6c3a2063616e206f6e6c792072656e6f756e636560008201527f20726f6c657320666f722073656c660000000000000000000000000000000000602082015250565b6000613ba5602f8361304e565b9150613bb082613b49565b604082019050919050565b60006020820190508181036000830152613bd481613b98565b9050919050565b7f43616c6c6572206973206e6f742061206d696e74657200000000000000000000600082015250565b6000613c1160168361304e565b9150613c1c82613bdb565b602082019050919050565b60006020820190508181036000830152613c4081613c04565b9050919050565b6000606082019050613c5c6000830186613193565b613c696020830185613229565b613c766040830184613229565b949350505050565b7f455243373231456e756d657261626c653a20676c6f62616c20696e646578206f60008201527f7574206f6620626f756e64730000000000000000000000000000000000000000602082015250565b6000613cda602c8361304e565b9150613ce582613c7e565b604082019050919050565b60006020820190508181036000830152613d0981613ccd565b9050919050565b7f4e487b7100000000000000000000000000000000000000000000000000000000600052603260045260246000fd5b7f4552433732313a206f776e657220717565727920666f72206e6f6e657869737460008201527f656e7420746f6b656e0000000000000000000000000000000000000000000000602082015250565b6000613d9b60298361304e565b9150613da682613d3f565b604082019050919050565b60006020820190508181036000830152613dca81613d8e565b9050919050565b7f4552433732313a2062616c616e636520717565727920666f7220746865207a6560008201527f726f206164647265737300000000000000000000000000000000000000000000602082015250565b6000613e2d602a8361304e565b9150613e3882613dd1565b604082019050919050565b60006020820190508181036000830152613e5c81613e20565b9050919050565b7f4f776e61626c653a2063616c6c6572206973206e6f7420746865206f776e6572600082015250565b6000613e9960208361304e565b9150613ea482613e63565b602082019050919050565b60006020820190508181036000830152613ec881613e8c565b9050919050565b7f4552433732314d657461646174613a2055524920717565727920666f72206e6f60008201527f6e6578697374656e7420746f6b656e0000000000000000000000000000000000602082015250565b6000613f2b602f8361304e565b9150613f3682613ecf565b604082019050919050565b60006020820190508181036000830152613f5a81613f1e565b9050919050565b600081905092915050565b6000613f7782613043565b613f818185613f61565b9350613f9181856020860161305f565b80840191505092915050565b6000613fa98285613f6c565b9150613fb58284613f6c565b91508190509392505050565b7f4e487b7100000000000000000000000000000000000000000000000000000000600052601160045260246000fd5b6000613ffb826130fe565b91507fffffffffffffffffffffffffffffffffffffffffffffffffffffffffffffffff82141561402e5761402d613fc1565b5b600182019050919050565b7f4f776e61626c653a206e6577206f776e657220697320746865207a65726f206160008201527f6464726573730000000000000000000000000000000000000000000000000000602082015250565b600061409560268361304e565b91506140a082614039565b604082019050919050565b600060208201905081810360008301526140c481614088565b9050919050565b7f4552433732313a206f70657261746f7220717565727920666f72206e6f6e657860008201527f697374656e7420746f6b656e0000000000000000000000000000000000000000602082015250565b6000614127602c8361304e565b9150614132826140cb565b604082019050919050565b600060208201905081810360008301526141568161411a565b9050919050565b7f4552433732313a207472616e736665722066726f6d20696e636f72726563742060008201527f6f776e6572000000000000000000000000000000000000000000000000000000602082015250565b60006141b960258361304e565b91506141c48261415d565b604082019050919050565b600060208201905081810360008301526141e8816141ac565b9050919050565b7f4552433732313a207472616e7366657220746f20746865207a65726f2061646460008201527f7265737300000000000000000000000000000000000000000000000000000000602082015250565b600061424b60248361304e565b9150614256826141ef565b604082019050919050565b6000602082019050818103600083015261427a8161423e565b9050919050565b600061428c826130fe565b9150614297836130fe565b9250828210156142aa576142a9613fc1565b5b828203905092915050565b60006142c0826130fe565b91506142cb836130fe565b9250827fffffffffffffffffffffffffffffffffffffffffffffffffffffffffffffffff03821115614300576142ff613fc1565b5b828201905092915050565b7f4552433732313a206d696e7420746f20746865207a65726f2061646472657373600082015250565b600061434160208361304e565b915061434c8261430b565b602082019050919050565b6000602082019050818103600083015261437081614334565b9050919050565b7f4552433732313a20746f6b656e20616c7265616479206d696e74656400000000600082015250565b60006143ad601c8361304e565b91506143b882614377565b602082019050919050565b600060208201905081810360008301526143dc816143a0565b9050919050565b7f4552433732313a20617070726f766520746f2063616c6c657200000000000000600082015250565b600061441960198361304e565b9150614424826143e3565b602082019050919050565b600060208201905081810360008301526144488161440c565b9050919050565b7f4552433732313a207472616e7366657220746f206e6f6e20455243373231526560008201527f63656976657220696d706c656d656e7465720000000000000000000000000000602082015250565b60006144ab60328361304e565b91506144b68261444f565b604082019050919050565b600060208201905081810360008301526144da8161449e565b9050919050565b7f4e487b7100000000000000000000000000000000000000000000000000000000600052601260045260246000fd5b600061451b826130fe565b9150614526836130fe565b925082614536576145356144e1565b5b828204905092915050565b600061454c826130fe565b9150614557836130fe565b925082614567576145666144e1565b5b828206905092915050565b7f416363657373436f6e74726f6c3a206163636f756e7420000000000000000000600082015250565b60006145a8601783613f61565b91506145b382614572565b601782019050919050565b7f206973206d697373696e6720726f6c6520000000000000000000000000000000600082015250565b60006145f4601183613f61565b91506145ff826145be565b601182019050919050565b60006146158261459b565b91506146218285613f6c565b915061462c826145e7565b91506146388284613f6c565b91508190509392505050565b600081519050919050565b600082825260208201905092915050565b600061466b82614644565b614675818561464f565b935061468581856020860161305f565b61468e81613092565b840191505092915050565b60006080820190506146ae6000830187613193565b6146bb6020830186613193565b6146c86040830185613229565b81810360608301526146da8184614660565b905095945050505050565b6000815190506146f481612fb4565b92915050565b6000602082840312156147105761470f612f7e565b5b600061471e848285016146e5565b91505092915050565b7f4e487b7100000000000000000000000000000000000000000000000000000000600052603160045260246000fd5b6000614761826130fe565b915061476c836130fe565b9250817fffffffffffffffffffffffffffffffffffffffffffffffffffffffffffffffff04831182151516156147a5576147a4613fc1565b5b828202905092915050565b60006147bb826130fe565b915060008214156147cf576147ce613fc1565b5b600182039050919050565b7f537472696e67733a20686578206c656e67746820696e73756666696369656e74600082015250565b600061481060208361304e565b915061481b826147da565b602082019050919050565b6000602082019050818103600083015261483f81614803565b905091905056fea2646970667358221220f0e4b08fadcd34d411e04303e953ff02e403e3035dd9c60cd12f872ca1404bee64736f6c634300080a0033",
  "linkReferences": {},
  "deployedLinkReferences": {}
}